{
  "contractName": "Decentee",
  "abi": [
    {
      "inputs": [],
      "stateMutability": "nonpayable",
      "type": "constructor"
    },
    {
      "anonymous": false,
      "inputs": [
        {
          "indexed": false,
          "internalType": "int256",
          "name": "scheduleID",
          "type": "int256"
        },
        {
          "indexed": false,
          "internalType": "uint256",
          "name": "valueReleased",
          "type": "uint256"
        }
      ],
      "name": "fundsReleased",
      "type": "event"
    },
    {
      "anonymous": false,
      "inputs": [
        {
          "indexed": false,
          "internalType": "address",
          "name": "clientAddress",
          "type": "address"
        }
      ],
      "name": "projectAccepted",
      "type": "event"
    },
    {
      "anonymous": false,
      "inputs": [],
      "name": "projectEnded",
      "type": "event"
    },
    {
      "anonymous": false,
      "inputs": [
        {
          "indexed": false,
          "internalType": "string",
          "name": "shortCode",
          "type": "string"
        }
      ],
      "name": "scheduleAdded",
      "type": "event"
    },
    {
      "anonymous": false,
      "inputs": [
        {
          "indexed": false,
          "internalType": "int256",
          "name": "scheduleID",
          "type": "int256"
        }
      ],
      "name": "taskApproved",
      "type": "event"
    },
    {
      "anonymous": false,
      "inputs": [
        {
          "indexed": false,
          "internalType": "int256",
          "name": "scheduleID",
          "type": "int256"
        }
      ],
      "name": "taskFunded",
      "type": "event"
    },
    {
      "anonymous": false,
      "inputs": [
        {
          "indexed": false,
          "internalType": "int256",
          "name": "scheduleID",
          "type": "int256"
        }
      ],
      "name": "taskStarted",
      "type": "event"
    },
    {
      "inputs": [],
      "name": "clientAddress",
      "outputs": [
        {
          "internalType": "address",
          "name": "",
          "type": "address"
        }
      ],
      "stateMutability": "view",
      "type": "function",
      "constant": true
    },
    {
      "inputs": [],
      "name": "decenteeAddress",
      "outputs": [
        {
          "internalType": "address payable",
          "name": "",
          "type": "address"
        }
      ],
      "stateMutability": "view",
      "type": "function",
      "constant": true
    },
    {
      "inputs": [],
      "name": "name",
      "outputs": [
        {
          "internalType": "string",
          "name": "",
          "type": "string"
        }
      ],
      "stateMutability": "view",
      "type": "function",
      "constant": true
    },
    {
      "inputs": [],
      "name": "projectState",
      "outputs": [
        {
          "internalType": "enum Decentee.ProjectState",
          "name": "",
          "type": "uint8"
        }
      ],
      "stateMutability": "view",
      "type": "function",
      "constant": true
    },
    {
      "inputs": [
        {
          "internalType": "int256",
          "name": "",
          "type": "int256"
        }
      ],
      "name": "scheduleRegister",
      "outputs": [
        {
          "internalType": "string",
          "name": "shortCode",
          "type": "string"
        },
        {
          "internalType": "string",
          "name": "description",
          "type": "string"
        },
        {
          "internalType": "uint256",
          "name": "value",
          "type": "uint256"
        },
        {
          "internalType": "enum Decentee.ScheduleState",
          "name": "scheduleState",
          "type": "uint8"
        }
      ],
      "stateMutability": "view",
      "type": "function",
      "constant": true
    },
    {
      "inputs": [],
      "name": "totalSchedules",
      "outputs": [
        {
          "internalType": "int256",
          "name": "",
          "type": "int256"
        }
      ],
      "stateMutability": "view",
      "type": "function",
      "constant": true
    },
    {
      "inputs": [
        {
          "internalType": "string",
          "name": "_shortCode",
          "type": "string"
        },
        {
          "internalType": "string",
          "name": "_description",
          "type": "string"
        },
        {
          "internalType": "uint256",
          "name": "_value",
          "type": "uint256"
        }
      ],
      "name": "addSchedule",
      "outputs": [],
      "stateMutability": "nonpayable",
      "type": "function"
    },
    {
      "inputs": [],
      "name": "acceptProject",
      "outputs": [],
      "stateMutability": "nonpayable",
      "type": "function"
    },
    {
      "inputs": [
        {
          "internalType": "int256",
          "name": "_scheduleID",
          "type": "int256"
        }
      ],
      "name": "fundTask",
      "outputs": [],
      "stateMutability": "payable",
      "type": "function",
      "payable": true
    },
    {
      "inputs": [
        {
          "internalType": "int256",
          "name": "_scheduleID",
          "type": "int256"
        }
      ],
      "name": "startTask",
      "outputs": [],
      "stateMutability": "nonpayable",
      "type": "function"
    },
    {
      "inputs": [
        {
          "internalType": "int256",
          "name": "_scheduleID",
          "type": "int256"
        }
      ],
      "name": "approveTask",
      "outputs": [],
      "stateMutability": "nonpayable",
      "type": "function"
    },
    {
      "inputs": [
        {
          "internalType": "int256",
          "name": "_scheduleID",
          "type": "int256"
        }
      ],
      "name": "releaseFunds",
      "outputs": [],
      "stateMutability": "payable",
      "type": "function",
      "payable": true
    },
    {
      "inputs": [],
      "name": "endProject",
      "outputs": [],
      "stateMutability": "nonpayable",
      "type": "function"
    },
    {
      "inputs": [],
      "name": "getBalance",
      "outputs": [
        {
          "internalType": "uint256",
          "name": "balance",
          "type": "uint256"
        }
      ],
      "stateMutability": "view",
      "type": "function",
      "constant": true
    }
  ],
  "bytecode": "0x60806040526040518060400160405280600881526020017f446563656e7465650000000000000000000000000000000000000000000000008152506000908051906020019062000051929190620000fe565b5060006001553480156200006457600080fd5b5033600260006101000a81548173ffffffffffffffffffffffffffffffffffffffff021916908373ffffffffffffffffffffffffffffffffffffffff1602179055506000600360146101000a81548160ff02191690836002811115620000f3577f4e487b7100000000000000000000000000000000000000000000000000000000600052602160045260246000fd5b021790555062000213565b8280546200010c90620001ae565b90600052602060002090601f0160209004810192826200013057600085556200017c565b82601f106200014b57805160ff19168380011785556200017c565b828001600101855582156200017c579182015b828111156200017b5782518255916020019190600101906200015e565b5b5090506200018b91906200018f565b5090565b5b80821115620001aa57600081600090555060010162000190565b5090565b60006002820490506001821680620001c757607f821691505b60208210811415620001de57620001dd620001e4565b5b50919050565b7f4e487b7100000000000000000000000000000000000000000000000000000000600052602260045260246000fd5b611bff80620002236000396000f3fe6080604052600436106100dd5760003560e01c8063965720af1161007f578063bab5691011610059578063bab569101461027b578063bb6fc950146102bb578063c3966409146102d7578063c916b6de146102ee576100dd565b8063965720af146101fc578063a0f67f4d14610227578063b7896a3014610252576100dd565b80632c2ab5ea116100bb5780632c2ab5ea146101545780636dc5434c1461017f578063748807ab146101a857806384bf66ac146101d3576100dd565b8063054f84ed146100e257806306fdde03146100fe57806312065fe014610129575b600080fd5b6100fc60048036038101906100f791906115d6565b610305565b005b34801561010a57600080fd5b5061011361056f565b60405161012091906117a6565b60405180910390f35b34801561013557600080fd5b5061013e6105fd565b60405161014b919061181b565b60405180910390f35b34801561016057600080fd5b50610169610605565b6040516101769190611711565b60405180910390f35b34801561018b57600080fd5b506101a660048036038101906101a191906115d6565b61062b565b005b3480156101b457600080fd5b506101bd61086f565b6040516101ca9190611747565b60405180910390f35b3480156101df57600080fd5b506101fa60048036038101906101f591906115ff565b610882565b005b34801561020857600080fd5b50610211610b13565b60405161021e9190611762565b60405180910390f35b34801561023357600080fd5b5061023c610b19565b604051610249919061172c565b60405180910390f35b34801561025e57600080fd5b50610279600480360381019061027491906115d6565b610b3f565b005b34801561028757600080fd5b506102a2600480360381019061029d91906115d6565b610d83565b6040516102b294939291906117c8565b60405180910390f35b6102d560048036038101906102d091906115d6565b610ed0565b005b3480156102e357600080fd5b506102ec6111aa565b005b3480156102fa57600080fd5b506103036112e8565b005b6001806002811115610340577f4e487b7100000000000000000000000000000000000000000000000000000000600052602160045260246000fd5b600360149054906101000a900460ff166002811115610388577f4e487b7100000000000000000000000000000000000000000000000000000000600052602160045260246000fd5b1461039257600080fd5b816000600180546103a391906118b3565b821315801561044457508060048111156103e6577f4e487b7100000000000000000000000000000000000000000000000000000000600052602160045260246000fd5b6004600084815260200190815260200160002060030160009054906101000a900460ff166004811115610442577f4e487b7100000000000000000000000000000000000000000000000000000000600052602160045260246000fd5b145b61044d57600080fd5b83348060046000848152602001908152602001600020600201541461047157600080fd5b600360009054906101000a900473ffffffffffffffffffffffffffffffffffffffff1673ffffffffffffffffffffffffffffffffffffffff163373ffffffffffffffffffffffffffffffffffffffff16146104cb57600080fd5b60016004600088815260200190815260200160002060030160006101000a81548160ff0219169083600481111561052b577f4e487b7100000000000000000000000000000000000000000000000000000000600052602160045260246000fd5b02179055507fd58e7b4972479e30bd65e34280dcda90802a617a803cb4b39764a2a30d3a8eae8660405161055f9190611762565b60405180910390a1505050505050565b6000805461057c90611a2b565b80601f01602080910402602001604051908101604052809291908181526020018280546105a890611a2b565b80156105f55780601f106105ca576101008083540402835291602001916105f5565b820191906000526020600020905b8154815290600101906020018083116105d857829003601f168201915b505050505081565b600047905090565b600360009054906101000a900473ffffffffffffffffffffffffffffffffffffffff1681565b6001806002811115610666577f4e487b7100000000000000000000000000000000000000000000000000000000600052602160045260246000fd5b600360149054906101000a900460ff1660028111156106ae577f4e487b7100000000000000000000000000000000000000000000000000000000600052602160045260246000fd5b146106b857600080fd5b816002600180546106c991906118b3565b821315801561076a575080600481111561070c577f4e487b7100000000000000000000000000000000000000000000000000000000600052602160045260246000fd5b6004600084815260200190815260200160002060030160009054906101000a900460ff166004811115610768577f4e487b7100000000000000000000000000000000000000000000000000000000600052602160045260246000fd5b145b61077357600080fd5b600360009054906101000a900473ffffffffffffffffffffffffffffffffffffffff1673ffffffffffffffffffffffffffffffffffffffff163373ffffffffffffffffffffffffffffffffffffffff16146107cd57600080fd5b60036004600086815260200190815260200160002060030160006101000a81548160ff0219169083600481111561082d577f4e487b7100000000000000000000000000000000000000000000000000000000600052602160045260246000fd5b02179055507f38f72d6c98702d265aec82b55e4b637d84fa97622b2244cd84dca2f171a0cefc846040516108619190611762565b60405180910390a150505050565b600360149054906101000a900460ff1681565b60008060028111156108bd577f4e487b7100000000000000000000000000000000000000000000000000000000600052602160045260246000fd5b600360149054906101000a900460ff166002811115610905577f4e487b7100000000000000000000000000000000000000000000000000000000600052602160045260246000fd5b1461090f57600080fd5b600260009054906101000a900473ffffffffffffffffffffffffffffffffffffffff1673ffffffffffffffffffffffffffffffffffffffff163373ffffffffffffffffffffffffffffffffffffffff161461096957600080fd5b610971611441565b8481600001819052508381602001819052506000816060019060048111156109c2577f4e487b7100000000000000000000000000000000000000000000000000000000600052602160045260246000fd5b908160048111156109fc577f4e487b7100000000000000000000000000000000000000000000000000000000600052602160045260246000fd5b8152505082816040018181525050806004600060015481526020019081526020016000206000820151816000019080519060200190610a3c9291906114a1565b506020820151816001019080519060200190610a599291906114a1565b506040820151816002015560608201518160030160006101000a81548160ff02191690836004811115610ab5577f4e487b7100000000000000000000000000000000000000000000000000000000600052602160045260246000fd5b021790555090505060016000815480929190610ad090611a5d565b91905055507ff29fdea51f7ec4cf45bbb7eb61e67fa64cf90101b5ea7415c5b02b69bac9c59485604051610b0491906117a6565b60405180910390a15050505050565b60015481565b600260009054906101000a900473ffffffffffffffffffffffffffffffffffffffff1681565b6001806002811115610b7a577f4e487b7100000000000000000000000000000000000000000000000000000000600052602160045260246000fd5b600360149054906101000a900460ff166002811115610bc2577f4e487b7100000000000000000000000000000000000000000000000000000000600052602160045260246000fd5b14610bcc57600080fd5b81600180600154610bdd91906118b3565b8213158015610c7e5750806004811115610c20577f4e487b7100000000000000000000000000000000000000000000000000000000600052602160045260246000fd5b6004600084815260200190815260200160002060030160009054906101000a900460ff166004811115610c7c577f4e487b7100000000000000000000000000000000000000000000000000000000600052602160045260246000fd5b145b610c8757600080fd5b600260009054906101000a900473ffffffffffffffffffffffffffffffffffffffff1673ffffffffffffffffffffffffffffffffffffffff163373ffffffffffffffffffffffffffffffffffffffff1614610ce157600080fd5b60026004600086815260200190815260200160002060030160006101000a81548160ff02191690836004811115610d41577f4e487b7100000000000000000000000000000000000000000000000000000000600052602160045260246000fd5b02179055507fde2dc33fbe2a5b6bf5e0ed721d44dc14441c4eef2cf4975ce14fd7bc0549489c84604051610d759190611762565b60405180910390a150505050565b6004602052806000526040600020600091509050806000018054610da690611a2b565b80601f0160208091040260200160405190810160405280929190818152602001828054610dd290611a2b565b8015610e1f5780601f10610df457610100808354040283529160200191610e1f565b820191906000526020600020905b815481529060010190602001808311610e0257829003601f168201915b505050505090806001018054610e3490611a2b565b80601f0160208091040260200160405190810160405280929190818152602001828054610e6090611a2b565b8015610ead5780601f10610e8257610100808354040283529160200191610ead565b820191906000526020600020905b815481529060010190602001808311610e9057829003601f168201915b5050505050908060020154908060030160009054906101000a900460ff16905084565b6001806002811115610f0b577f4e487b7100000000000000000000000000000000000000000000000000000000600052602160045260246000fd5b600360149054906101000a900460ff166002811115610f53577f4e487b7100000000000000000000000000000000000000000000000000000000600052602160045260246000fd5b14610f5d57600080fd5b81600360018054610f6e91906118b3565b821315801561100f5750806004811115610fb1577f4e487b7100000000000000000000000000000000000000000000000000000000600052602160045260246000fd5b6004600084815260200190815260200160002060030160009054906101000a900460ff16600481111561100d577f4e487b7100000000000000000000000000000000000000000000000000000000600052602160045260246000fd5b145b61101857600080fd5b600260009054906101000a900473ffffffffffffffffffffffffffffffffffffffff1673ffffffffffffffffffffffffffffffffffffffff163373ffffffffffffffffffffffffffffffffffffffff161461107257600080fd5b600260009054906101000a900473ffffffffffffffffffffffffffffffffffffffff1673ffffffffffffffffffffffffffffffffffffffff166108fc60046000878152602001908152602001600020600201549081150290604051600060405180830381858888f193505050501580156110f0573d6000803e3d6000fd5b50600480600086815260200190815260200160002060030160006101000a81548160ff02191690836004811115611150577f4e487b7100000000000000000000000000000000000000000000000000000000600052602160045260246000fd5b02179055507fd73e163332c47993ba97b46887362ea1f01120cbc609242b41762901217bfd5d84600460008781526020019081526020016000206002015460405161119c92919061177d565b60405180910390a150505050565b600360009054906101000a900473ffffffffffffffffffffffffffffffffffffffff1673ffffffffffffffffffffffffffffffffffffffff163373ffffffffffffffffffffffffffffffffffffffff1614806112535750600260009054906101000a900473ffffffffffffffffffffffffffffffffffffffff1673ffffffffffffffffffffffffffffffffffffffff163373ffffffffffffffffffffffffffffffffffffffff16145b61125c57600080fd5b6000471461126957600080fd5b6002600360146101000a81548160ff021916908360028111156112b5577f4e487b7100000000000000000000000000000000000000000000000000000000600052602160045260246000fd5b02179055507fbef1ef6470add1875c12e547d844894de0608f7d47527676863b44153090bfe260405160405180910390a1565b6000806002811115611323577f4e487b7100000000000000000000000000000000000000000000000000000000600052602160045260246000fd5b600360149054906101000a900460ff16600281111561136b577f4e487b7100000000000000000000000000000000000000000000000000000000600052602160045260246000fd5b1461137557600080fd5b33600360006101000a81548173ffffffffffffffffffffffffffffffffffffffff021916908373ffffffffffffffffffffffffffffffffffffffff1602179055506001600360146101000a81548160ff02191690836002811115611402577f4e487b7100000000000000000000000000000000000000000000000000000000600052602160045260246000fd5b02179055507f01bc39c23d192137df337abb0c6fe3f63a86ead52f73452ca64136a5dfd7ff43336040516114369190611711565b60405180910390a150565b60405180608001604052806060815260200160608152602001600081526020016000600481111561149b577f4e487b7100000000000000000000000000000000000000000000000000000000600052602160045260246000fd5b81525090565b8280546114ad90611a2b565b90600052602060002090601f0160209004810192826114cf5760008555611516565b82601f106114e857805160ff1916838001178555611516565b82800160010185558215611516579182015b828111156115155782518255916020019190600101906114fa565b5b5090506115239190611527565b5090565b5b80821115611540576000816000905550600101611528565b5090565b600061155761155284611867565b611836565b90508281526020810184848401111561156f57600080fd5b61157a8482856119e9565b509392505050565b60008135905061159181611b9b565b92915050565b600082601f8301126115a857600080fd5b81356115b8848260208601611544565b91505092915050565b6000813590506115d081611bb2565b92915050565b6000602082840312156115e857600080fd5b60006115f684828501611582565b91505092915050565b60008060006060848603121561161457600080fd5b600084013567ffffffffffffffff81111561162e57600080fd5b61163a86828701611597565b935050602084013567ffffffffffffffff81111561165757600080fd5b61166386828701611597565b9250506040611674868287016115c1565b9150509250925092565b61168781611959565b82525050565b61169681611947565b82525050565b6116a5816119c5565b82525050565b6116b4816119d7565b82525050565b6116c381611991565b82525050565b60006116d482611897565b6116de81856118a2565b93506116ee8185602086016119f8565b6116f781611b62565b840191505092915050565b61170b816119bb565b82525050565b6000602082019050611726600083018461168d565b92915050565b6000602082019050611741600083018461167e565b92915050565b600060208201905061175c600083018461169c565b92915050565b600060208201905061177760008301846116ba565b92915050565b600060408201905061179260008301856116ba565b61179f6020830184611702565b9392505050565b600060208201905081810360008301526117c081846116c9565b905092915050565b600060808201905081810360008301526117e281876116c9565b905081810360208301526117f681866116c9565b90506118056040830185611702565b61181260608301846116ab565b95945050505050565b60006020820190506118306000830184611702565b92915050565b6000604051905081810181811067ffffffffffffffff8211171561185d5761185c611b33565b5b8060405250919050565b600067ffffffffffffffff82111561188257611881611b33565b5b601f19601f8301169050602081019050919050565b600081519050919050565b600082825260208201905092915050565b60006118be82611991565b91506118c983611991565b9250827f80000000000000000000000000000000000000000000000000000000000000000182126000841215161561190457611903611aa6565b5b827f7fffffffffffffffffffffffffffffffffffffffffffffffffffffffffffffff01821360008412161561193c5761193b611aa6565b5b828203905092915050565b60006119528261199b565b9050919050565b60006119648261199b565b9050919050565b600081905061197982611b73565b919050565b600081905061198c82611b87565b919050565b6000819050919050565b600073ffffffffffffffffffffffffffffffffffffffff82169050919050565b6000819050919050565b60006119d08261196b565b9050919050565b60006119e28261197e565b9050919050565b82818337600083830152505050565b60005b83811015611a165780820151818401526020810190506119fb565b83811115611a25576000848401525b50505050565b60006002820490506001821680611a4357607f821691505b60208210811415611a5757611a56611b04565b5b50919050565b6000611a6882611991565b91507f7fffffffffffffffffffffffffffffffffffffffffffffffffffffffffffffff821415611a9b57611a9a611aa6565b5b600182019050919050565b7f4e487b7100000000000000000000000000000000000000000000000000000000600052601160045260246000fd5b7f4e487b7100000000000000000000000000000000000000000000000000000000600052602160045260246000fd5b7f4e487b7100000000000000000000000000000000000000000000000000000000600052602260045260246000fd5b7f4e487b7100000000000000000000000000000000000000000000000000000000600052604160045260246000fd5b6000601f19601f8301169050919050565b60038110611b8457611b83611ad5565b5b50565b60058110611b9857611b97611ad5565b5b50565b611ba481611991565b8114611baf57600080fd5b50565b611bbb816119bb565b8114611bc657600080fd5b5056fea26469706673582212202ccb5a7d63749cbe48fe858232d24f08bf5841a3304911b6d6a3c2f293095f3564736f6c63430008000033",
  "immutableReferences": {},
  "source": "pragma solidity ^0.8.0;\n\ncontract Decentee{\n\n  \n string public name = \"Decentee\";\n    \n    enum ScheduleState {planned, funded, started, approved, released}\n    enum ProjectState {initiated, accepted, closed}\n    \n    struct schedule{\n        string shortCode;\n        string description;\n        uint256 value;\n        ScheduleState scheduleState;\n    }  \n  \n    int256 public totalSchedules = 0;\n    address payable public decenteeAddress;\n    address public clientAddress;\n    ProjectState public projectState;\n    \n    mapping(int256 => schedule) public scheduleRegister;\n  \n\tmodifier condition(bool _condition) {\n\t\trequire(_condition);\n\t\t_;\n\t}\n\n\tmodifier onlyDecentee() {\n\t\trequire(msg.sender == decenteeAddress);\n\t\t_;\n\t}\n\n\tmodifier onlyClient() {\n\t\trequire(msg.sender == clientAddress);\n\t\t_;\n\t}\n\t\n\tmodifier bothClientDecentee(){\n\t\trequire(msg.sender == clientAddress || msg.sender == decenteeAddress);\n\t\t_;\t    \n\t}\n\n\tmodifier inProjectState(ProjectState _state) {\n\t\trequire(projectState == _state);\n\t\t_;\n\t}\n\n    modifier inScheduleState(int256 _scheduleID, ScheduleState _state){\n        require((_scheduleID <= totalSchedules - 1) && scheduleRegister[_scheduleID].scheduleState == _state);\n        _;\n    }\n\n    modifier ampleFunding(int256 _scheduleID, uint256 _funding){\n        require(scheduleRegister[_scheduleID].value == _funding);\n        _;\n    }\n\n    modifier noMoreFunds(){\n        require(address(this).balance == 0);\n        _;\n    }\n\n    event scheduleAdded(string shortCode);\n    event projectAccepted(address clientAddress);\n    event taskFunded(int256 scheduleID);\n    event taskStarted(int256 scheduleID);\n    event taskApproved(int256 scheduleID);\n    event fundsReleased(int256 scheduleID, uint256 valueReleased);\n    event projectEnded();\n    \n    constructor()\n    {\n        decenteeAddress = payable(msg.sender);\n        projectState = ProjectState.initiated;\n    }\n    \n    function addSchedule(string memory _shortCode, string memory _description, uint256 _value)\n        public\n        inProjectState(ProjectState.initiated)\n        onlyDecentee\n    {\n        schedule memory s;\n        s.shortCode = _shortCode;\n        s.description = _description;\n        s.scheduleState = ScheduleState.planned;\n        s.value = _value;\n        scheduleRegister[totalSchedules] = s;\n        totalSchedules++;\n        emit scheduleAdded(_shortCode);\n    }\n    \n    function acceptProject()\n        public\n        inProjectState(ProjectState.initiated)\n    {\n        clientAddress = msg.sender;\n        projectState = ProjectState.accepted;\n        emit projectAccepted(msg.sender);\n    }\n    \n    function fundTask(int256 _scheduleID)\n        public\n        payable\n        inProjectState(ProjectState.accepted)\n        inScheduleState(_scheduleID, ScheduleState.planned)\n        ampleFunding(_scheduleID, msg.value)\n        onlyClient\n    {\n        scheduleRegister[_scheduleID].scheduleState = ScheduleState.funded;\n        emit taskFunded(_scheduleID);\n    }\n    \n    function startTask(int256 _scheduleID)\n        public\n        inProjectState(ProjectState.accepted)\n        inScheduleState(_scheduleID, ScheduleState.funded)\n        onlyDecentee\n    {\n        scheduleRegister[_scheduleID].scheduleState = ScheduleState.started;\n        emit taskStarted(_scheduleID);\n    }\n\n    function approveTask(int256 _scheduleID)\n        public\n        inProjectState(ProjectState.accepted)\n        inScheduleState(_scheduleID, ScheduleState.started)\n        onlyClient\n    {\n        scheduleRegister[_scheduleID].scheduleState = ScheduleState.approved;\n        emit taskApproved(_scheduleID);\n    }\n    \n    function releaseFunds(int256 _scheduleID)\n        public\n        payable\n        inProjectState(ProjectState.accepted)\n        inScheduleState(_scheduleID, ScheduleState.approved)\n        onlyDecentee\n    {\n        decenteeAddress.transfer(scheduleRegister[_scheduleID].value);\n        scheduleRegister[_scheduleID].scheduleState = ScheduleState.released;\n        emit fundsReleased(_scheduleID, scheduleRegister[_scheduleID].value);\n    }\n    \n    function endProject()\n        public\n        bothClientDecentee\n        noMoreFunds\n    {\n        projectState = ProjectState.closed;\n        emit projectEnded();\n    }\n    \n    function getBalance()\n        public\n        view\n        returns (uint256 balance)\n    {\n        return address(this).balance;\n    }\n} \n\n\n",
  "sourcePath": "/mnt/c/code/projects/project-network/pages/contracts/Decentee.sol",
  "compiler": {
    "name": "solc",
    "version": "0.8.0+commit.c7dfd78e.Emscripten.clang"
  },
  "schemaVersion": "3.4.1",
  "updatedAt": "2021-06-09T23:02:10.671Z",
  "networkType": "ethereum",
  "devdoc": {
    "kind": "dev",
    "methods": {},
    "version": 1
  },
  "userdoc": {
    "kind": "user",
    "methods": {},
    "version": 1
  }
}